{
	"contracts/First.sol": {
		"EventTicketMiniTest": {
			"abi": [
				{
					"inputs": [
						{
							"internalType": "uint256",
							"name": "_ticketPrice",
							"type": "uint256"
						}
					],
					"stateMutability": "nonpayable",
					"type": "constructor"
				},
				{
					"inputs": [
						{
							"internalType": "uint256",
							"name": "_ticketUnits",
							"type": "uint256"
						}
					],
					"name": "buyTicket",
					"outputs": [
						{
							"internalType": "uint256",
							"name": "ticketId",
							"type": "uint256"
						}
					],
					"stateMutability": "nonpayable",
					"type": "function"
				},
				{
					"inputs": [],
					"name": "getGrandTotal",
					"outputs": [
						{
							"internalType": "uint256",
							"name": "",
							"type": "uint256"
						}
					],
					"stateMutability": "view",
					"type": "function"
				},
				{
					"inputs": [],
					"name": "getNumberOfPurcahse",
					"outputs": [
						{
							"internalType": "uint256",
							"name": "",
							"type": "uint256"
						}
					],
					"stateMutability": "view",
					"type": "function"
				},
				{
					"inputs": [],
					"name": "getTotalNumberOfTickets",
					"outputs": [
						{
							"internalType": "uint256",
							"name": "",
							"type": "uint256"
						}
					],
					"stateMutability": "view",
					"type": "function"
				}
			],
			"devdoc": {
				"kind": "dev",
				"methods": {},
				"version": 1
			},
			"evm": {
				"assembly": "    /* \"contracts/First.sol\":179:1285  contract EventTicketMiniTest{... */\n  mstore(0x40, 0x80)\n    /* \"contracts/First.sol\":412:611  constructor(uint _ticketPrice){... */\n  callvalue\n  dup1\n  iszero\n  tag_1\n  jumpi\n  0x00\n  dup1\n  revert\ntag_1:\n  pop\n  mload(0x40)\n  sub(codesize, bytecodeSize)\n  dup1\n  bytecodeSize\n  dup4\n  codecopy\n  dup2\n  dup2\n  add\n  0x40\n  mstore\n  dup2\n  add\n  swap1\n  tag_2\n  swap2\n  swap1\n  tag_3\n  jump\t// in\ntag_2:\n    /* \"contracts/First.sol\":466:478  _ticketPrice */\n  dup1\n    /* \"contracts/First.sol\":452:463  ticketPrice */\n  0x01\n    /* \"contracts/First.sol\":452:478  ticketPrice = _ticketPrice */\n  dup2\n  swap1\n  sstore\n  pop\n    /* \"contracts/First.sol\":498:513  block.timestamp */\n  timestamp\n    /* \"contracts/First.sol\":488:495  startAt */\n  0x03\n    /* \"contracts/First.sol\":488:513  startAt = block.timestamp */\n  dup2\n  swap1\n  sstore\n  pop\n    /* \"contracts/First.sol\":549:550  7 */\n  0x07\n    /* \"contracts/First.sol\":531:546  block.timestamp */\n  timestamp\n    /* \"contracts/First.sol\":531:550  block.timestamp + 7 */\n  tag_6\n  swap2\n  swap1\n  tag_7\n  jump\t// in\ntag_6:\n    /* \"contracts/First.sol\":523:528  endAt */\n  0x04\n    /* \"contracts/First.sol\":523:550  endAt = block.timestamp + 7 */\n  dup2\n  swap1\n  sstore\n  pop\n    /* \"contracts/First.sol\":602:604  24 */\n  0x18\n    /* \"contracts/First.sol\":597:599  60 */\n  0x3c\n    /* \"contracts/First.sol\":592:594  60 */\n  dup1\n    /* \"contracts/First.sol\":581:588  startAt */\n  sload(0x03)\n    /* \"contracts/First.sol\":573:578  endAt */\n  sload(0x04)\n    /* \"contracts/First.sol\":573:588  endAt - startAt */\n  tag_8\n  swap2\n  swap1\n  tag_9\n  jump\t// in\ntag_8:\n    /* \"contracts/First.sol\":572:594  (endAt - startAt) / 60 */\n  tag_10\n  swap2\n  swap1\n  tag_11\n  jump\t// in\ntag_10:\n    /* \"contracts/First.sol\":572:599  (endAt - startAt) / 60 / 60 */\n  tag_12\n  swap2\n  swap1\n  tag_11\n  jump\t// in\ntag_12:\n    /* \"contracts/First.sol\":572:604  (endAt - startAt) / 60 / 60 / 24 */\n  tag_13\n  swap2\n  swap1\n  tag_11\n  jump\t// in\ntag_13:\n    /* \"contracts/First.sol\":560:569  timeRange */\n  0x05\n    /* \"contracts/First.sol\":560:604  timeRange = (endAt - startAt) / 60 / 60 / 24 */\n  dup2\n  swap1\n  sstore\n  pop\n    /* \"contracts/First.sol\":412:611  constructor(uint _ticketPrice){... */\n  pop\n    /* \"contracts/First.sol\":179:1285  contract EventTicketMiniTest{... */\n  jump(tag_14)\n    /* \"#utility.yul\":88:205   */\ntag_16:\n    /* \"#utility.yul\":197:198   */\n  0x00\n    /* \"#utility.yul\":194:195   */\n  dup1\n    /* \"#utility.yul\":187:199   */\n  revert\n    /* \"#utility.yul\":334:411   */\ntag_18:\n    /* \"#utility.yul\":371:378   */\n  0x00\n    /* \"#utility.yul\":400:405   */\n  dup2\n    /* \"#utility.yul\":389:405   */\n  swap1\n  pop\n    /* \"#utility.yul\":334:411   */\n  swap2\n  swap1\n  pop\n  jump\t// out\n    /* \"#utility.yul\":417:539   */\ntag_19:\n    /* \"#utility.yul\":490:514   */\n  tag_29\n    /* \"#utility.yul\":508:513   */\n  dup2\n    /* \"#utility.yul\":490:514   */\n  tag_18\n  jump\t// in\ntag_29:\n    /* \"#utility.yul\":483:488   */\n  dup2\n    /* \"#utility.yul\":480:515   */\n  eq\n    /* \"#utility.yul\":470:533   */\n  tag_30\n  jumpi\n    /* \"#utility.yul\":529:530   */\n  0x00\n    /* \"#utility.yul\":526:527   */\n  dup1\n    /* \"#utility.yul\":519:531   */\n  revert\n    /* \"#utility.yul\":470:533   */\ntag_30:\n    /* \"#utility.yul\":417:539   */\n  pop\n  jump\t// out\n    /* \"#utility.yul\":545:688   */\ntag_20:\n    /* \"#utility.yul\":602:607   */\n  0x00\n    /* \"#utility.yul\":633:639   */\n  dup2\n    /* \"#utility.yul\":627:640   */\n  mload\n    /* \"#utility.yul\":618:640   */\n  swap1\n  pop\n    /* \"#utility.yul\":649:682   */\n  tag_32\n    /* \"#utility.yul\":676:681   */\n  dup2\n    /* \"#utility.yul\":649:682   */\n  tag_19\n  jump\t// in\ntag_32:\n    /* \"#utility.yul\":545:688   */\n  swap3\n  swap2\n  pop\n  pop\n  jump\t// out\n    /* \"#utility.yul\":694:1045   */\ntag_3:\n    /* \"#utility.yul\":764:770   */\n  0x00\n    /* \"#utility.yul\":813:815   */\n  0x20\n    /* \"#utility.yul\":801:810   */\n  dup3\n    /* \"#utility.yul\":792:799   */\n  dup5\n    /* \"#utility.yul\":788:811   */\n  sub\n    /* \"#utility.yul\":784:816   */\n  slt\n    /* \"#utility.yul\":781:900   */\n  iszero\n  tag_34\n  jumpi\n    /* \"#utility.yul\":819:898   */\n  tag_35\n  tag_16\n  jump\t// in\ntag_35:\n    /* \"#utility.yul\":781:900   */\ntag_34:\n    /* \"#utility.yul\":939:940   */\n  0x00\n    /* \"#utility.yul\":964:1028   */\n  tag_36\n    /* \"#utility.yul\":1020:1027   */\n  dup5\n    /* \"#utility.yul\":1011:1017   */\n  dup3\n    /* \"#utility.yul\":1000:1009   */\n  dup6\n    /* \"#utility.yul\":996:1018   */\n  add\n    /* \"#utility.yul\":964:1028   */\n  tag_20\n  jump\t// in\ntag_36:\n    /* \"#utility.yul\":954:1028   */\n  swap2\n  pop\n    /* \"#utility.yul\":910:1038   */\n  pop\n    /* \"#utility.yul\":694:1045   */\n  swap3\n  swap2\n  pop\n  pop\n  jump\t// out\n    /* \"#utility.yul\":1051:1231   */\ntag_21:\n    /* \"#utility.yul\":1099:1176   */\n  0x4e487b7100000000000000000000000000000000000000000000000000000000\n    /* \"#utility.yul\":1096:1097   */\n  0x00\n    /* \"#utility.yul\":1089:1177   */\n  mstore\n    /* \"#utility.yul\":1196:1200   */\n  0x11\n    /* \"#utility.yul\":1193:1194   */\n  0x04\n    /* \"#utility.yul\":1186:1201   */\n  mstore\n    /* \"#utility.yul\":1220:1224   */\n  0x24\n    /* \"#utility.yul\":1217:1218   */\n  0x00\n    /* \"#utility.yul\":1210:1225   */\n  revert\n    /* \"#utility.yul\":1237:1428   */\ntag_7:\n    /* \"#utility.yul\":1277:1280   */\n  0x00\n    /* \"#utility.yul\":1296:1316   */\n  tag_39\n    /* \"#utility.yul\":1314:1315   */\n  dup3\n    /* \"#utility.yul\":1296:1316   */\n  tag_18\n  jump\t// in\ntag_39:\n    /* \"#utility.yul\":1291:1316   */\n  swap2\n  pop\n    /* \"#utility.yul\":1330:1350   */\n  tag_40\n    /* \"#utility.yul\":1348:1349   */\n  dup4\n    /* \"#utility.yul\":1330:1350   */\n  tag_18\n  jump\t// in\ntag_40:\n    /* \"#utility.yul\":1325:1350   */\n  swap3\n  pop\n    /* \"#utility.yul\":1373:1374   */\n  dup3\n    /* \"#utility.yul\":1370:1371   */\n  dup3\n    /* \"#utility.yul\":1366:1375   */\n  add\n    /* \"#utility.yul\":1359:1375   */\n  swap1\n  pop\n    /* \"#utility.yul\":1394:1397   */\n  dup1\n    /* \"#utility.yul\":1391:1392   */\n  dup3\n    /* \"#utility.yul\":1388:1398   */\n  gt\n    /* \"#utility.yul\":1385:1421   */\n  iszero\n  tag_41\n  jumpi\n    /* \"#utility.yul\":1401:1419   */\n  tag_42\n  tag_21\n  jump\t// in\ntag_42:\n    /* \"#utility.yul\":1385:1421   */\ntag_41:\n    /* \"#utility.yul\":1237:1428   */\n  swap3\n  swap2\n  pop\n  pop\n  jump\t// out\n    /* \"#utility.yul\":1434:1628   */\ntag_9:\n    /* \"#utility.yul\":1474:1478   */\n  0x00\n    /* \"#utility.yul\":1494:1514   */\n  tag_44\n    /* \"#utility.yul\":1512:1513   */\n  dup3\n    /* \"#utility.yul\":1494:1514   */\n  tag_18\n  jump\t// in\ntag_44:\n    /* \"#utility.yul\":1489:1514   */\n  swap2\n  pop\n    /* \"#utility.yul\":1528:1548   */\n  tag_45\n    /* \"#utility.yul\":1546:1547   */\n  dup4\n    /* \"#utility.yul\":1528:1548   */\n  tag_18\n  jump\t// in\ntag_45:\n    /* \"#utility.yul\":1523:1548   */\n  swap3\n  pop\n    /* \"#utility.yul\":1572:1573   */\n  dup3\n    /* \"#utility.yul\":1569:1570   */\n  dup3\n    /* \"#utility.yul\":1565:1574   */\n  sub\n    /* \"#utility.yul\":1557:1574   */\n  swap1\n  pop\n    /* \"#utility.yul\":1596:1597   */\n  dup2\n    /* \"#utility.yul\":1590:1594   */\n  dup2\n    /* \"#utility.yul\":1587:1598   */\n  gt\n    /* \"#utility.yul\":1584:1621   */\n  iszero\n  tag_46\n  jumpi\n    /* \"#utility.yul\":1601:1619   */\n  tag_47\n  tag_21\n  jump\t// in\ntag_47:\n    /* \"#utility.yul\":1584:1621   */\ntag_46:\n    /* \"#utility.yul\":1434:1628   */\n  swap3\n  swap2\n  pop\n  pop\n  jump\t// out\n    /* \"#utility.yul\":1634:1814   */\ntag_22:\n    /* \"#utility.yul\":1682:1759   */\n  0x4e487b7100000000000000000000000000000000000000000000000000000000\n    /* \"#utility.yul\":1679:1680   */\n  0x00\n    /* \"#utility.yul\":1672:1760   */\n  mstore\n    /* \"#utility.yul\":1779:1783   */\n  0x12\n    /* \"#utility.yul\":1776:1777   */\n  0x04\n    /* \"#utility.yul\":1769:1784   */\n  mstore\n    /* \"#utility.yul\":1803:1807   */\n  0x24\n    /* \"#utility.yul\":1800:1801   */\n  0x00\n    /* \"#utility.yul\":1793:1808   */\n  revert\n    /* \"#utility.yul\":1820:2005   */\ntag_11:\n    /* \"#utility.yul\":1860:1861   */\n  0x00\n    /* \"#utility.yul\":1877:1897   */\n  tag_50\n    /* \"#utility.yul\":1895:1896   */\n  dup3\n    /* \"#utility.yul\":1877:1897   */\n  tag_18\n  jump\t// in\ntag_50:\n    /* \"#utility.yul\":1872:1897   */\n  swap2\n  pop\n    /* \"#utility.yul\":1911:1931   */\n  tag_51\n    /* \"#utility.yul\":1929:1930   */\n  dup4\n    /* \"#utility.yul\":1911:1931   */\n  tag_18\n  jump\t// in\ntag_51:\n    /* \"#utility.yul\":1906:1931   */\n  swap3\n  pop\n    /* \"#utility.yul\":1950:1951   */\n  dup3\n    /* \"#utility.yul\":1940:1975   */\n  tag_52\n  jumpi\n    /* \"#utility.yul\":1955:1973   */\n  tag_53\n  tag_22\n  jump\t// in\ntag_53:\n    /* \"#utility.yul\":1940:1975   */\ntag_52:\n    /* \"#utility.yul\":1997:1998   */\n  dup3\n    /* \"#utility.yul\":1994:1995   */\n  dup3\n    /* \"#utility.yul\":1990:1999   */\n  div\n    /* \"#utility.yul\":1985:1999   */\n  swap1\n  pop\n    /* \"#utility.yul\":1820:2005   */\n  swap3\n  swap2\n  pop\n  pop\n  jump\t// out\n    /* \"contracts/First.sol\":179:1285  contract EventTicketMiniTest{... */\ntag_14:\n  dataSize(sub_0)\n  dup1\n  dataOffset(sub_0)\n  0x00\n  codecopy\n  0x00\n  return\nstop\n\nsub_0: assembly {\n        /* \"contracts/First.sol\":179:1285  contract EventTicketMiniTest{... */\n      mstore(0x40, 0x80)\n      callvalue\n      dup1\n      iszero\n      tag_1\n      jumpi\n      0x00\n      dup1\n      revert\n    tag_1:\n      pop\n      jumpi(tag_2, lt(calldatasize, 0x04))\n      shr(0xe0, calldataload(0x00))\n      dup1\n      0x67dd74ca\n      eq\n      tag_3\n      jumpi\n      dup1\n      0x7aaf0e43\n      eq\n      tag_4\n      jumpi\n      dup1\n      0xa10f60de\n      eq\n      tag_5\n      jumpi\n      dup1\n      0xdac4c61b\n      eq\n      tag_6\n      jumpi\n    tag_2:\n      0x00\n      dup1\n      revert\n        /* \"contracts/First.sol\":617:970  function buyTicket (uint256 _ticketUnits) public returns(uint256 ticketId) {// payablle... */\n    tag_3:\n      tag_7\n      0x04\n      dup1\n      calldatasize\n      sub\n      dup2\n      add\n      swap1\n      tag_8\n      swap2\n      swap1\n      tag_9\n      jump\t// in\n    tag_8:\n      tag_10\n      jump\t// in\n    tag_7:\n      mload(0x40)\n      tag_11\n      swap2\n      swap1\n      tag_12\n      jump\t// in\n    tag_11:\n      mload(0x40)\n      dup1\n      swap2\n      sub\n      swap1\n      return\n        /* \"contracts/First.sol\":977:1077  function getNumberOfPurcahse() public view returns(uint256){... */\n    tag_4:\n      tag_13\n      tag_14\n      jump\t// in\n    tag_13:\n      mload(0x40)\n      tag_15\n      swap2\n      swap1\n      tag_12\n      jump\t// in\n    tag_15:\n      mload(0x40)\n      dup1\n      swap2\n      sub\n      swap1\n      return\n        /* \"contracts/First.sol\":1083:1190  function getTotalNumberOfTickets() public view returns(uint256){... */\n    tag_5:\n      tag_16\n      tag_17\n      jump\t// in\n    tag_16:\n      mload(0x40)\n      tag_18\n      swap2\n      swap1\n      tag_12\n      jump\t// in\n    tag_18:\n      mload(0x40)\n      dup1\n      swap2\n      sub\n      swap1\n      return\n        /* \"contracts/First.sol\":1196:1283  function getGrandTotal() public view returns(uint256){... */\n    tag_6:\n      tag_19\n      tag_20\n      jump\t// in\n    tag_19:\n      mload(0x40)\n      tag_21\n      swap2\n      swap1\n      tag_12\n      jump\t// in\n    tag_21:\n      mload(0x40)\n      dup1\n      swap2\n      sub\n      swap1\n      return\n        /* \"contracts/First.sol\":617:970  function buyTicket (uint256 _ticketUnits) public returns(uint256 ticketId) {// payablle... */\n    tag_10:\n        /* \"contracts/First.sol\":674:690  uint256 ticketId */\n      0x00\n        /* \"contracts/First.sol\":803:820  numberOfBuyTicket */\n      dup1\n      0x00\n        /* \"contracts/First.sol\":803:822  numberOfBuyTicket++ */\n      dup2\n      sload\n      dup1\n      swap3\n      swap2\n      swap1\n      tag_23\n      swap1\n      tag_24\n      jump\t// in\n    tag_23:\n      swap2\n      swap1\n      pop\n      sstore\n      pop\n        /* \"contracts/First.sol\":856:868  _ticketUnits */\n      dup2\n        /* \"contracts/First.sol\":832:852  totalAmountOfTickets */\n      0x02\n      0x00\n        /* \"contracts/First.sol\":832:868  totalAmountOfTickets += _ticketUnits */\n      dup3\n      dup3\n      sload\n      tag_25\n      swap2\n      swap1\n      tag_26\n      jump\t// in\n    tag_25:\n      swap3\n      pop\n      pop\n      dup2\n      swap1\n      sstore\n      pop\n        /* \"contracts/First.sol\":889:906  numberOfBuyTicket */\n      sload(0x00)\n        /* \"contracts/First.sol\":878:906  ticketId = numberOfBuyTicket */\n      swap1\n      pop\n        /* \"contracts/First.sol\":952:963  ticketPrice */\n      sload(0x01)\n        /* \"contracts/First.sol\":929:949  totalAmountOfTickets */\n      sload(0x02)\n        /* \"contracts/First.sol\":929:963  totalAmountOfTickets * ticketPrice */\n      tag_27\n      swap2\n      swap1\n      tag_28\n      jump\t// in\n    tag_27:\n        /* \"contracts/First.sol\":916:926  grandTotal */\n      0x07\n        /* \"contracts/First.sol\":916:963  grandTotal = totalAmountOfTickets * ticketPrice */\n      dup2\n      swap1\n      sstore\n      pop\n        /* \"contracts/First.sol\":617:970  function buyTicket (uint256 _ticketUnits) public returns(uint256 ticketId) {// payablle... */\n      swap2\n      swap1\n      pop\n      jump\t// out\n        /* \"contracts/First.sol\":977:1077  function getNumberOfPurcahse() public view returns(uint256){... */\n    tag_14:\n        /* \"contracts/First.sol\":1028:1035  uint256 */\n      0x00\n        /* \"contracts/First.sol\":1053:1070  numberOfBuyTicket */\n      dup1\n      sload\n        /* \"contracts/First.sol\":1046:1070  return numberOfBuyTicket */\n      swap1\n      pop\n        /* \"contracts/First.sol\":977:1077  function getNumberOfPurcahse() public view returns(uint256){... */\n      swap1\n      jump\t// out\n        /* \"contracts/First.sol\":1083:1190  function getTotalNumberOfTickets() public view returns(uint256){... */\n    tag_17:\n        /* \"contracts/First.sol\":1138:1145  uint256 */\n      0x00\n        /* \"contracts/First.sol\":1163:1183  totalAmountOfTickets */\n      sload(0x02)\n        /* \"contracts/First.sol\":1156:1183  return totalAmountOfTickets */\n      swap1\n      pop\n        /* \"contracts/First.sol\":1083:1190  function getTotalNumberOfTickets() public view returns(uint256){... */\n      swap1\n      jump\t// out\n        /* \"contracts/First.sol\":1196:1283  function getGrandTotal() public view returns(uint256){... */\n    tag_20:\n        /* \"contracts/First.sol\":1241:1248  uint256 */\n      0x00\n        /* \"contracts/First.sol\":1266:1276  grandTotal */\n      sload(0x07)\n        /* \"contracts/First.sol\":1259:1276  return grandTotal */\n      swap1\n      pop\n        /* \"contracts/First.sol\":1196:1283  function getGrandTotal() public view returns(uint256){... */\n      swap1\n      jump\t// out\n        /* \"#utility.yul\":88:205   */\n    tag_33:\n        /* \"#utility.yul\":197:198   */\n      0x00\n        /* \"#utility.yul\":194:195   */\n      dup1\n        /* \"#utility.yul\":187:199   */\n      revert\n        /* \"#utility.yul\":334:411   */\n    tag_35:\n        /* \"#utility.yul\":371:378   */\n      0x00\n        /* \"#utility.yul\":400:405   */\n      dup2\n        /* \"#utility.yul\":389:405   */\n      swap1\n      pop\n        /* \"#utility.yul\":334:411   */\n      swap2\n      swap1\n      pop\n      jump\t// out\n        /* \"#utility.yul\":417:539   */\n    tag_36:\n        /* \"#utility.yul\":490:514   */\n      tag_46\n        /* \"#utility.yul\":508:513   */\n      dup2\n        /* \"#utility.yul\":490:514   */\n      tag_35\n      jump\t// in\n    tag_46:\n        /* \"#utility.yul\":483:488   */\n      dup2\n        /* \"#utility.yul\":480:515   */\n      eq\n        /* \"#utility.yul\":470:533   */\n      tag_47\n      jumpi\n        /* \"#utility.yul\":529:530   */\n      0x00\n        /* \"#utility.yul\":526:527   */\n      dup1\n        /* \"#utility.yul\":519:531   */\n      revert\n        /* \"#utility.yul\":470:533   */\n    tag_47:\n        /* \"#utility.yul\":417:539   */\n      pop\n      jump\t// out\n        /* \"#utility.yul\":545:684   */\n    tag_37:\n        /* \"#utility.yul\":591:596   */\n      0x00\n        /* \"#utility.yul\":629:635   */\n      dup2\n        /* \"#utility.yul\":616:636   */\n      calldataload\n        /* \"#utility.yul\":607:636   */\n      swap1\n      pop\n        /* \"#utility.yul\":645:678   */\n      tag_49\n        /* \"#utility.yul\":672:677   */\n      dup2\n        /* \"#utility.yul\":645:678   */\n      tag_36\n      jump\t// in\n    tag_49:\n        /* \"#utility.yul\":545:684   */\n      swap3\n      swap2\n      pop\n      pop\n      jump\t// out\n        /* \"#utility.yul\":690:1019   */\n    tag_9:\n        /* \"#utility.yul\":749:755   */\n      0x00\n        /* \"#utility.yul\":798:800   */\n      0x20\n        /* \"#utility.yul\":786:795   */\n      dup3\n        /* \"#utility.yul\":777:784   */\n      dup5\n        /* \"#utility.yul\":773:796   */\n      sub\n        /* \"#utility.yul\":769:801   */\n      slt\n        /* \"#utility.yul\":766:885   */\n      iszero\n      tag_51\n      jumpi\n        /* \"#utility.yul\":804:883   */\n      tag_52\n      tag_33\n      jump\t// in\n    tag_52:\n        /* \"#utility.yul\":766:885   */\n    tag_51:\n        /* \"#utility.yul\":924:925   */\n      0x00\n        /* \"#utility.yul\":949:1002   */\n      tag_53\n        /* \"#utility.yul\":994:1001   */\n      dup5\n        /* \"#utility.yul\":985:991   */\n      dup3\n        /* \"#utility.yul\":974:983   */\n      dup6\n        /* \"#utility.yul\":970:992   */\n      add\n        /* \"#utility.yul\":949:1002   */\n      tag_37\n      jump\t// in\n    tag_53:\n        /* \"#utility.yul\":939:1002   */\n      swap2\n      pop\n        /* \"#utility.yul\":895:1012   */\n      pop\n        /* \"#utility.yul\":690:1019   */\n      swap3\n      swap2\n      pop\n      pop\n      jump\t// out\n        /* \"#utility.yul\":1025:1143   */\n    tag_38:\n        /* \"#utility.yul\":1112:1136   */\n      tag_55\n        /* \"#utility.yul\":1130:1135   */\n      dup2\n        /* \"#utility.yul\":1112:1136   */\n      tag_35\n      jump\t// in\n    tag_55:\n        /* \"#utility.yul\":1107:1110   */\n      dup3\n        /* \"#utility.yul\":1100:1137   */\n      mstore\n        /* \"#utility.yul\":1025:1143   */\n      pop\n      pop\n      jump\t// out\n        /* \"#utility.yul\":1149:1371   */\n    tag_12:\n        /* \"#utility.yul\":1242:1246   */\n      0x00\n        /* \"#utility.yul\":1280:1282   */\n      0x20\n        /* \"#utility.yul\":1269:1278   */\n      dup3\n        /* \"#utility.yul\":1265:1283   */\n      add\n        /* \"#utility.yul\":1257:1283   */\n      swap1\n      pop\n        /* \"#utility.yul\":1293:1364   */\n      tag_57\n        /* \"#utility.yul\":1361:1362   */\n      0x00\n        /* \"#utility.yul\":1350:1359   */\n      dup4\n        /* \"#utility.yul\":1346:1363   */\n      add\n        /* \"#utility.yul\":1337:1343   */\n      dup5\n        /* \"#utility.yul\":1293:1364   */\n      tag_38\n      jump\t// in\n    tag_57:\n        /* \"#utility.yul\":1149:1371   */\n      swap3\n      swap2\n      pop\n      pop\n      jump\t// out\n        /* \"#utility.yul\":1377:1557   */\n    tag_39:\n        /* \"#utility.yul\":1425:1502   */\n      0x4e487b7100000000000000000000000000000000000000000000000000000000\n        /* \"#utility.yul\":1422:1423   */\n      0x00\n        /* \"#utility.yul\":1415:1503   */\n      mstore\n        /* \"#utility.yul\":1522:1526   */\n      0x11\n        /* \"#utility.yul\":1519:1520   */\n      0x04\n        /* \"#utility.yul\":1512:1527   */\n      mstore\n        /* \"#utility.yul\":1546:1550   */\n      0x24\n        /* \"#utility.yul\":1543:1544   */\n      0x00\n        /* \"#utility.yul\":1536:1551   */\n      revert\n        /* \"#utility.yul\":1563:1796   */\n    tag_24:\n        /* \"#utility.yul\":1602:1605   */\n      0x00\n        /* \"#utility.yul\":1625:1649   */\n      tag_60\n        /* \"#utility.yul\":1643:1648   */\n      dup3\n        /* \"#utility.yul\":1625:1649   */\n      tag_35\n      jump\t// in\n    tag_60:\n        /* \"#utility.yul\":1616:1649   */\n      swap2\n      pop\n        /* \"#utility.yul\":1671:1737   */\n      0xffffffffffffffffffffffffffffffffffffffffffffffffffffffffffffffff\n        /* \"#utility.yul\":1664:1669   */\n      dup3\n        /* \"#utility.yul\":1661:1738   */\n      sub\n        /* \"#utility.yul\":1658:1761   */\n      tag_61\n      jumpi\n        /* \"#utility.yul\":1741:1759   */\n      tag_62\n      tag_39\n      jump\t// in\n    tag_62:\n        /* \"#utility.yul\":1658:1761   */\n    tag_61:\n        /* \"#utility.yul\":1788:1789   */\n      0x01\n        /* \"#utility.yul\":1781:1786   */\n      dup3\n        /* \"#utility.yul\":1777:1790   */\n      add\n        /* \"#utility.yul\":1770:1790   */\n      swap1\n      pop\n        /* \"#utility.yul\":1563:1796   */\n      swap2\n      swap1\n      pop\n      jump\t// out\n        /* \"#utility.yul\":1802:1993   */\n    tag_26:\n        /* \"#utility.yul\":1842:1845   */\n      0x00\n        /* \"#utility.yul\":1861:1881   */\n      tag_64\n        /* \"#utility.yul\":1879:1880   */\n      dup3\n        /* \"#utility.yul\":1861:1881   */\n      tag_35\n      jump\t// in\n    tag_64:\n        /* \"#utility.yul\":1856:1881   */\n      swap2\n      pop\n        /* \"#utility.yul\":1895:1915   */\n      tag_65\n        /* \"#utility.yul\":1913:1914   */\n      dup4\n        /* \"#utility.yul\":1895:1915   */\n      tag_35\n      jump\t// in\n    tag_65:\n        /* \"#utility.yul\":1890:1915   */\n      swap3\n      pop\n        /* \"#utility.yul\":1938:1939   */\n      dup3\n        /* \"#utility.yul\":1935:1936   */\n      dup3\n        /* \"#utility.yul\":1931:1940   */\n      add\n        /* \"#utility.yul\":1924:1940   */\n      swap1\n      pop\n        /* \"#utility.yul\":1959:1962   */\n      dup1\n        /* \"#utility.yul\":1956:1957   */\n      dup3\n        /* \"#utility.yul\":1953:1963   */\n      gt\n        /* \"#utility.yul\":1950:1986   */\n      iszero\n      tag_66\n      jumpi\n        /* \"#utility.yul\":1966:1984   */\n      tag_67\n      tag_39\n      jump\t// in\n    tag_67:\n        /* \"#utility.yul\":1950:1986   */\n    tag_66:\n        /* \"#utility.yul\":1802:1993   */\n      swap3\n      swap2\n      pop\n      pop\n      jump\t// out\n        /* \"#utility.yul\":1999:2409   */\n    tag_28:\n        /* \"#utility.yul\":2039:2046   */\n      0x00\n        /* \"#utility.yul\":2062:2082   */\n      tag_69\n        /* \"#utility.yul\":2080:2081   */\n      dup3\n        /* \"#utility.yul\":2062:2082   */\n      tag_35\n      jump\t// in\n    tag_69:\n        /* \"#utility.yul\":2057:2082   */\n      swap2\n      pop\n        /* \"#utility.yul\":2096:2116   */\n      tag_70\n        /* \"#utility.yul\":2114:2115   */\n      dup4\n        /* \"#utility.yul\":2096:2116   */\n      tag_35\n      jump\t// in\n    tag_70:\n        /* \"#utility.yul\":2091:2116   */\n      swap3\n      pop\n        /* \"#utility.yul\":2151:2152   */\n      dup3\n        /* \"#utility.yul\":2148:2149   */\n      dup3\n        /* \"#utility.yul\":2144:2153   */\n      mul\n        /* \"#utility.yul\":2173:2203   */\n      tag_71\n        /* \"#utility.yul\":2191:2202   */\n      dup2\n        /* \"#utility.yul\":2173:2203   */\n      tag_35\n      jump\t// in\n    tag_71:\n        /* \"#utility.yul\":2162:2203   */\n      swap2\n      pop\n        /* \"#utility.yul\":2352:2353   */\n      dup3\n        /* \"#utility.yul\":2343:2350   */\n      dup3\n        /* \"#utility.yul\":2339:2354   */\n      div\n        /* \"#utility.yul\":2336:2337   */\n      dup5\n        /* \"#utility.yul\":2333:2355   */\n      eq\n        /* \"#utility.yul\":2313:2314   */\n      dup4\n        /* \"#utility.yul\":2306:2315   */\n      iszero\n        /* \"#utility.yul\":2286:2369   */\n      or\n        /* \"#utility.yul\":2263:2402   */\n      tag_72\n      jumpi\n        /* \"#utility.yul\":2382:2400   */\n      tag_73\n      tag_39\n      jump\t// in\n    tag_73:\n        /* \"#utility.yul\":2263:2402   */\n    tag_72:\n        /* \"#utility.yul\":2047:2409   */\n      pop\n        /* \"#utility.yul\":1999:2409   */\n      swap3\n      swap2\n      pop\n      pop\n      jump\t// out\n\n    auxdata: 0xa26469706673582212204fca6cf6c1f3b53a6cb79f02a8fbf6d607cb9bea91ddc1859e4d749072df3f5464736f6c634300081a0033\n}\n",
				"bytecode": {
					"linkReferences": {},
					"object": "608060405234801561000f575f80fd5b506040516104d83803806104d8833981810160405281019061003191906100c8565b806001819055504260038190555060074261004c9190610120565b6004819055506018603c806003546004546100679190610153565b61007191906101b3565b61007b91906101b3565b61008591906101b3565b600581905550506101e3565b5f80fd5b5f819050919050565b6100a781610095565b81146100b1575f80fd5b50565b5f815190506100c28161009e565b92915050565b5f602082840312156100dd576100dc610091565b5b5f6100ea848285016100b4565b91505092915050565b7f4e487b71000000000000000000000000000000000000000000000000000000005f52601160045260245ffd5b5f61012a82610095565b915061013583610095565b925082820190508082111561014d5761014c6100f3565b5b92915050565b5f61015d82610095565b915061016883610095565b92508282039050818111156101805761017f6100f3565b5b92915050565b7f4e487b71000000000000000000000000000000000000000000000000000000005f52601260045260245ffd5b5f6101bd82610095565b91506101c883610095565b9250826101d8576101d7610186565b5b828204905092915050565b6102e8806101f05f395ff3fe608060405234801561000f575f80fd5b506004361061004a575f3560e01c806367dd74ca1461004e5780637aaf0e431461007e578063a10f60de1461009c578063dac4c61b146100ba575b5f80fd5b61006860048036038101906100639190610177565b6100d8565b60405161007591906101b1565b60405180910390f35b610086610126565b60405161009391906101b1565b60405180910390f35b6100a461012e565b6040516100b191906101b1565b60405180910390f35b6100c2610137565b6040516100cf91906101b1565b60405180910390f35b5f805f8154809291906100ea906101f7565b91905055508160025f828254610100919061023e565b925050819055505f54905060015460025461011b9190610271565b600781905550919050565b5f8054905090565b5f600254905090565b5f600754905090565b5f80fd5b5f819050919050565b61015681610144565b8114610160575f80fd5b50565b5f813590506101718161014d565b92915050565b5f6020828403121561018c5761018b610140565b5b5f61019984828501610163565b91505092915050565b6101ab81610144565b82525050565b5f6020820190506101c45f8301846101a2565b92915050565b7f4e487b71000000000000000000000000000000000000000000000000000000005f52601160045260245ffd5b5f61020182610144565b91507fffffffffffffffffffffffffffffffffffffffffffffffffffffffffffffffff8203610233576102326101ca565b5b600182019050919050565b5f61024882610144565b915061025383610144565b925082820190508082111561026b5761026a6101ca565b5b92915050565b5f61027b82610144565b915061028683610144565b925082820261029481610144565b915082820484148315176102ab576102aa6101ca565b5b509291505056fea26469706673582212204fca6cf6c1f3b53a6cb79f02a8fbf6d607cb9bea91ddc1859e4d749072df3f5464736f6c634300081a0033",
					"opcodes": "PUSH1 0x80 PUSH1 0x40 MSTORE CALLVALUE DUP1 ISZERO PUSH2 0xF JUMPI PUSH0 DUP1 REVERT JUMPDEST POP PUSH1 0x40 MLOAD PUSH2 0x4D8 CODESIZE SUB DUP1 PUSH2 0x4D8 DUP4 CODECOPY DUP2 DUP2 ADD PUSH1 0x40 MSTORE DUP2 ADD SWAP1 PUSH2 0x31 SWAP2 SWAP1 PUSH2 0xC8 JUMP JUMPDEST DUP1 PUSH1 0x1 DUP2 SWAP1 SSTORE POP TIMESTAMP PUSH1 0x3 DUP2 SWAP1 SSTORE POP PUSH1 0x7 TIMESTAMP PUSH2 0x4C SWAP2 SWAP1 PUSH2 0x120 JUMP JUMPDEST PUSH1 0x4 DUP2 SWAP1 SSTORE POP PUSH1 0x18 PUSH1 0x3C DUP1 PUSH1 0x3 SLOAD PUSH1 0x4 SLOAD PUSH2 0x67 SWAP2 SWAP1 PUSH2 0x153 JUMP JUMPDEST PUSH2 0x71 SWAP2 SWAP1 PUSH2 0x1B3 JUMP JUMPDEST PUSH2 0x7B SWAP2 SWAP1 PUSH2 0x1B3 JUMP JUMPDEST PUSH2 0x85 SWAP2 SWAP1 PUSH2 0x1B3 JUMP JUMPDEST PUSH1 0x5 DUP2 SWAP1 SSTORE POP POP PUSH2 0x1E3 JUMP JUMPDEST PUSH0 DUP1 REVERT JUMPDEST PUSH0 DUP2 SWAP1 POP SWAP2 SWAP1 POP JUMP JUMPDEST PUSH2 0xA7 DUP2 PUSH2 0x95 JUMP JUMPDEST DUP2 EQ PUSH2 0xB1 JUMPI PUSH0 DUP1 REVERT JUMPDEST POP JUMP JUMPDEST PUSH0 DUP2 MLOAD SWAP1 POP PUSH2 0xC2 DUP2 PUSH2 0x9E JUMP JUMPDEST SWAP3 SWAP2 POP POP JUMP JUMPDEST PUSH0 PUSH1 0x20 DUP3 DUP5 SUB SLT ISZERO PUSH2 0xDD JUMPI PUSH2 0xDC PUSH2 0x91 JUMP JUMPDEST JUMPDEST PUSH0 PUSH2 0xEA DUP5 DUP3 DUP6 ADD PUSH2 0xB4 JUMP JUMPDEST SWAP2 POP POP SWAP3 SWAP2 POP POP JUMP JUMPDEST PUSH32 0x4E487B7100000000000000000000000000000000000000000000000000000000 PUSH0 MSTORE PUSH1 0x11 PUSH1 0x4 MSTORE PUSH1 0x24 PUSH0 REVERT JUMPDEST PUSH0 PUSH2 0x12A DUP3 PUSH2 0x95 JUMP JUMPDEST SWAP2 POP PUSH2 0x135 DUP4 PUSH2 0x95 JUMP JUMPDEST SWAP3 POP DUP3 DUP3 ADD SWAP1 POP DUP1 DUP3 GT ISZERO PUSH2 0x14D JUMPI PUSH2 0x14C PUSH2 0xF3 JUMP JUMPDEST JUMPDEST SWAP3 SWAP2 POP POP JUMP JUMPDEST PUSH0 PUSH2 0x15D DUP3 PUSH2 0x95 JUMP JUMPDEST SWAP2 POP PUSH2 0x168 DUP4 PUSH2 0x95 JUMP JUMPDEST SWAP3 POP DUP3 DUP3 SUB SWAP1 POP DUP2 DUP2 GT ISZERO PUSH2 0x180 JUMPI PUSH2 0x17F PUSH2 0xF3 JUMP JUMPDEST JUMPDEST SWAP3 SWAP2 POP POP JUMP JUMPDEST PUSH32 0x4E487B7100000000000000000000000000000000000000000000000000000000 PUSH0 MSTORE PUSH1 0x12 PUSH1 0x4 MSTORE PUSH1 0x24 PUSH0 REVERT JUMPDEST PUSH0 PUSH2 0x1BD DUP3 PUSH2 0x95 JUMP JUMPDEST SWAP2 POP PUSH2 0x1C8 DUP4 PUSH2 0x95 JUMP JUMPDEST SWAP3 POP DUP3 PUSH2 0x1D8 JUMPI PUSH2 0x1D7 PUSH2 0x186 JUMP JUMPDEST JUMPDEST DUP3 DUP3 DIV SWAP1 POP SWAP3 SWAP2 POP POP JUMP JUMPDEST PUSH2 0x2E8 DUP1 PUSH2 0x1F0 PUSH0 CODECOPY PUSH0 RETURN INVALID PUSH1 0x80 PUSH1 0x40 MSTORE CALLVALUE DUP1 ISZERO PUSH2 0xF JUMPI PUSH0 DUP1 REVERT JUMPDEST POP PUSH1 0x4 CALLDATASIZE LT PUSH2 0x4A JUMPI PUSH0 CALLDATALOAD PUSH1 0xE0 SHR DUP1 PUSH4 0x67DD74CA EQ PUSH2 0x4E JUMPI DUP1 PUSH4 0x7AAF0E43 EQ PUSH2 0x7E JUMPI DUP1 PUSH4 0xA10F60DE EQ PUSH2 0x9C JUMPI DUP1 PUSH4 0xDAC4C61B EQ PUSH2 0xBA JUMPI JUMPDEST PUSH0 DUP1 REVERT JUMPDEST PUSH2 0x68 PUSH1 0x4 DUP1 CALLDATASIZE SUB DUP2 ADD SWAP1 PUSH2 0x63 SWAP2 SWAP1 PUSH2 0x177 JUMP JUMPDEST PUSH2 0xD8 JUMP JUMPDEST PUSH1 0x40 MLOAD PUSH2 0x75 SWAP2 SWAP1 PUSH2 0x1B1 JUMP JUMPDEST PUSH1 0x40 MLOAD DUP1 SWAP2 SUB SWAP1 RETURN JUMPDEST PUSH2 0x86 PUSH2 0x126 JUMP JUMPDEST PUSH1 0x40 MLOAD PUSH2 0x93 SWAP2 SWAP1 PUSH2 0x1B1 JUMP JUMPDEST PUSH1 0x40 MLOAD DUP1 SWAP2 SUB SWAP1 RETURN JUMPDEST PUSH2 0xA4 PUSH2 0x12E JUMP JUMPDEST PUSH1 0x40 MLOAD PUSH2 0xB1 SWAP2 SWAP1 PUSH2 0x1B1 JUMP JUMPDEST PUSH1 0x40 MLOAD DUP1 SWAP2 SUB SWAP1 RETURN JUMPDEST PUSH2 0xC2 PUSH2 0x137 JUMP JUMPDEST PUSH1 0x40 MLOAD PUSH2 0xCF SWAP2 SWAP1 PUSH2 0x1B1 JUMP JUMPDEST PUSH1 0x40 MLOAD DUP1 SWAP2 SUB SWAP1 RETURN JUMPDEST PUSH0 DUP1 PUSH0 DUP2 SLOAD DUP1 SWAP3 SWAP2 SWAP1 PUSH2 0xEA SWAP1 PUSH2 0x1F7 JUMP JUMPDEST SWAP2 SWAP1 POP SSTORE POP DUP2 PUSH1 0x2 PUSH0 DUP3 DUP3 SLOAD PUSH2 0x100 SWAP2 SWAP1 PUSH2 0x23E JUMP JUMPDEST SWAP3 POP POP DUP2 SWAP1 SSTORE POP PUSH0 SLOAD SWAP1 POP PUSH1 0x1 SLOAD PUSH1 0x2 SLOAD PUSH2 0x11B SWAP2 SWAP1 PUSH2 0x271 JUMP JUMPDEST PUSH1 0x7 DUP2 SWAP1 SSTORE POP SWAP2 SWAP1 POP JUMP JUMPDEST PUSH0 DUP1 SLOAD SWAP1 POP SWAP1 JUMP JUMPDEST PUSH0 PUSH1 0x2 SLOAD SWAP1 POP SWAP1 JUMP JUMPDEST PUSH0 PUSH1 0x7 SLOAD SWAP1 POP SWAP1 JUMP JUMPDEST PUSH0 DUP1 REVERT JUMPDEST PUSH0 DUP2 SWAP1 POP SWAP2 SWAP1 POP JUMP JUMPDEST PUSH2 0x156 DUP2 PUSH2 0x144 JUMP JUMPDEST DUP2 EQ PUSH2 0x160 JUMPI PUSH0 DUP1 REVERT JUMPDEST POP JUMP JUMPDEST PUSH0 DUP2 CALLDATALOAD SWAP1 POP PUSH2 0x171 DUP2 PUSH2 0x14D JUMP JUMPDEST SWAP3 SWAP2 POP POP JUMP JUMPDEST PUSH0 PUSH1 0x20 DUP3 DUP5 SUB SLT ISZERO PUSH2 0x18C JUMPI PUSH2 0x18B PUSH2 0x140 JUMP JUMPDEST JUMPDEST PUSH0 PUSH2 0x199 DUP5 DUP3 DUP6 ADD PUSH2 0x163 JUMP JUMPDEST SWAP2 POP POP SWAP3 SWAP2 POP POP JUMP JUMPDEST PUSH2 0x1AB DUP2 PUSH2 0x144 JUMP JUMPDEST DUP3 MSTORE POP POP JUMP JUMPDEST PUSH0 PUSH1 0x20 DUP3 ADD SWAP1 POP PUSH2 0x1C4 PUSH0 DUP4 ADD DUP5 PUSH2 0x1A2 JUMP JUMPDEST SWAP3 SWAP2 POP POP JUMP JUMPDEST PUSH32 0x4E487B7100000000000000000000000000000000000000000000000000000000 PUSH0 MSTORE PUSH1 0x11 PUSH1 0x4 MSTORE PUSH1 0x24 PUSH0 REVERT JUMPDEST PUSH0 PUSH2 0x201 DUP3 PUSH2 0x144 JUMP JUMPDEST SWAP2 POP PUSH32 0xFFFFFFFFFFFFFFFFFFFFFFFFFFFFFFFFFFFFFFFFFFFFFFFFFFFFFFFFFFFFFFFF DUP3 SUB PUSH2 0x233 JUMPI PUSH2 0x232 PUSH2 0x1CA JUMP JUMPDEST JUMPDEST PUSH1 0x1 DUP3 ADD SWAP1 POP SWAP2 SWAP1 POP JUMP JUMPDEST PUSH0 PUSH2 0x248 DUP3 PUSH2 0x144 JUMP JUMPDEST SWAP2 POP PUSH2 0x253 DUP4 PUSH2 0x144 JUMP JUMPDEST SWAP3 POP DUP3 DUP3 ADD SWAP1 POP DUP1 DUP3 GT ISZERO PUSH2 0x26B JUMPI PUSH2 0x26A PUSH2 0x1CA JUMP JUMPDEST JUMPDEST SWAP3 SWAP2 POP POP JUMP JUMPDEST PUSH0 PUSH2 0x27B DUP3 PUSH2 0x144 JUMP JUMPDEST SWAP2 POP PUSH2 0x286 DUP4 PUSH2 0x144 JUMP JUMPDEST SWAP3 POP DUP3 DUP3 MUL PUSH2 0x294 DUP2 PUSH2 0x144 JUMP JUMPDEST SWAP2 POP DUP3 DUP3 DIV DUP5 EQ DUP4 ISZERO OR PUSH2 0x2AB JUMPI PUSH2 0x2AA PUSH2 0x1CA JUMP JUMPDEST JUMPDEST POP SWAP3 SWAP2 POP POP JUMP INVALID LOG2 PUSH5 0x6970667358 0x22 SLT KECCAK256 0x4F 0xCA PUSH13 0xF6C1F3B53A6CB79F02A8FBF6D6 SMOD 0xCB SWAP12 0xEA SWAP2 0xDD 0xC1 DUP6 SWAP15 0x4D PUSH21 0x9072DF3F5464736F6C634300081A00330000000000 "
				},
				"gasEstimates": {
					"creation": {
						"codeDepositCost": "148800",
						"executionCost": "infinite",
						"totalCost": "infinite"
					},
					"external": {
						"buyTicket(uint256)": "infinite",
						"getGrandTotal()": "2476",
						"getNumberOfPurcahse()": "2432",
						"getTotalNumberOfTickets()": "2454"
					}
				},
				"methodIdentifiers": {
					"buyTicket(uint256)": "67dd74ca",
					"getGrandTotal()": "dac4c61b",
					"getNumberOfPurcahse()": "7aaf0e43",
					"getTotalNumberOfTickets()": "a10f60de"
				}
			},
			"storageLayout": {
				"storage": [
					{
						"astId": 3,
						"contract": "contracts/First.sol:EventTicketMiniTest",
						"label": "numberOfBuyTicket",
						"offset": 0,
						"slot": "0",
						"type": "t_uint256"
					},
					{
						"astId": 5,
						"contract": "contracts/First.sol:EventTicketMiniTest",
						"label": "ticketPrice",
						"offset": 0,
						"slot": "1",
						"type": "t_uint256"
					},
					{
						"astId": 7,
						"contract": "contracts/First.sol:EventTicketMiniTest",
						"label": "totalAmountOfTickets",
						"offset": 0,
						"slot": "2",
						"type": "t_uint256"
					},
					{
						"astId": 9,
						"contract": "contracts/First.sol:EventTicketMiniTest",
						"label": "startAt",
						"offset": 0,
						"slot": "3",
						"type": "t_uint256"
					},
					{
						"astId": 11,
						"contract": "contracts/First.sol:EventTicketMiniTest",
						"label": "endAt",
						"offset": 0,
						"slot": "4",
						"type": "t_uint256"
					},
					{
						"astId": 13,
						"contract": "contracts/First.sol:EventTicketMiniTest",
						"label": "timeRange",
						"offset": 0,
						"slot": "5",
						"type": "t_uint256"
					},
					{
						"astId": 15,
						"contract": "contracts/First.sol:EventTicketMiniTest",
						"label": "message",
						"offset": 0,
						"slot": "6",
						"type": "t_uint256"
					},
					{
						"astId": 17,
						"contract": "contracts/First.sol:EventTicketMiniTest",
						"label": "grandTotal",
						"offset": 0,
						"slot": "7",
						"type": "t_uint256"
					}
				],
				"types": {
					"t_uint256": {
						"encoding": "inplace",
						"label": "uint256",
						"numberOfBytes": "32"
					}
				}
			},
			"userdoc": {
				"kind": "user",
				"methods": {},
				"version": 1
			}
		}
	}
}